:100000000C942F000C9400000C9400000C94000041
:100010000C9400000C9400000C9400000C94000060
:100020000C9400000C9400000C9400000C94000050
:100030000C9400000C9400000C9400000C94000040
:100040000C9400000C9400000C9400000C94000030
:040050000C9400000C
:10005E00BFE5BDBFB8E0BEBF0AB30F600ABB04B3B5
:10006E000F6F04BBB2E0BBBBB6E0B5BB1AE20EE845
:0E007E000A95F1F71A95E1F70000F4CFFFCFD5
:0A00540005900D920197E1F7089561
:00000001FF
