:100000000C94C9000C9400000C9400000C940000A7
:100010000C9400000C9400000C9400000C94000060
:100020000C9400000C9400000C9400000C94000050
:100030000C9400000C9400000C9400000C94000040
:100040000C9400000C9400000C9400000C94000030
:040050000C9400000C
:10019200BFE5BDBFB8E0BEBF0E9485012F923F926E
:1001A200F2DF0AB3006F0ABB04B30F6F04BB07B3DD
:1001B200007007BB06B302FF0AC0009160001091F5
:1001C20061000F5F1F4F009360001093610042E0D7
:1001D20050E0009160001091610040DF8C0110300E
:1001E20009F4013009F03FC002B70D3760F0B0E00A
:1001F200B2BF00916200109163000F5F1F4F009326
:1002020062001093630020916200309163000AE063
:1002120010E0201731077CF0B0E0B0936200B09399
:10022200630000916600109167000F5F1F4F0093FB
:10023200660010936700209166003091670004E623
:1002420010E0201731077CF0B0E0B0936600B09365
:10025200670000916400109165000F5F1F4F0093CB
:1002620064001093650006B303FF11C0B0E0B2BF93
:10027200B0E0B0936200B0936300B0E0B093660068
:10028200B0936700B0E0B0936400B09365004AE0B9
:1002920050E00091660010916700E0DE8C01302E84
:1002A200B4E02B2E05DF4AE050E000916600109189
:1002B2006700D4DE8B014AE050E0D0DE8C01302EA4
:1002C200B3E02B2EF5DE4AE050E00091640010917D
:1002D2006500C4DE8C01302EB2E02B2EE9DE4AE04E
:1002E20050E00091640010916500B8DE8B014AE095
:1002F20050E0B4DE8C01302EB1E02B2ED9DE5ACF85
:060302003F902F90FFCF99
:0A018800B3E0B3BFB0E0B2BF0895CA
:1000B2000BB3007F0BBB05B3007005BB28C005B3B3
:1000C2000F6305BB42C005B3066005BB3EC005B366
:1000D2000B6505BB3AC005B30F6405BB36C005B35B
:1000E200066605BB32C005B30D6605BB2EC005B35F
:1000F2000D6705BB2AC005B3076005BB26C005B363
:100102000F6705BB22C005B3076605BB1EC0B0E082
:100112003B16A9F2B1E03B16B1F2B2E03B16B9F2DE
:10012200B3E03B16C1F2B4E03B16C9F2B5E03B16B0
:10013200D1F2B6E03B16D9F2B7E03B16E1F2B8E0F5
:100142003B16E9F2B9E03B16F1F210C00BB30160C5
:100152000BBB18C0BBB3B260BBBB14C00BB3046013
:100162000BBB10C00BB308600BBB0CC0B1E02B166D
:1001720069F3B2E02B1671F3B3E02B1679F3B4E016
:060182002B1681F3089525
:0A00540005900D920197E1F7089561
:10005E00C801BA0197FB092E07260AD077FD04D0F6
:10006E000CD006D000201AF4709561957F4F08953C
:10007E00F6F7909581959F4F0895AA1BBB1B51E1F2
:10008E0007C0AA1FBB1FA617B70710F0A61BB70BFA
:10009E00881F991F5A95A9F780959095BC01CD019F
:0400AE000895089514
:10030A00A0E6B0E0E8E0F3E082E090E00E942A0094
:02031A00089544
:020308000000F3
:00000001FF
