:100000000C94A0000C9400000C9400000C940000D0
:100010000C9400000C9400000C9400000C94000060
:100020000C9400000C9400000C9400000C94000050
:100030000C9400000C9400000C9400000C94000040
:100040000C9400000C9400000C9400000C94000030
:040050000C9400000C
:10014000BFE5BDBFB8E0BEBF2F923F9204B30F60C2
:1001500004BB0AB30F6F0ABBB1E03B2EB1E02B2EFC
:100160007EDFB1E03B2EB2E02B2E79DFB1E03B2EFB
:10017000B3E02B2E74DFB1E03B2EB4E02B2E6FDF0B
:08018000EBCF3F902F90FFCF61
:10005E0005B3007F05BB0BB300700BBB28C005B307
:10006E000F6305BB42C005B3066005BB3EC005B3BA
:10007E000B6505BB3AC005B30F6405BB36C005B3AF
:10008E00066605BB32C005B30D6605BB2EC005B3B3
:10009E000D6705BB2AC005B3076005BB26C005B3B7
:1000AE000F6705BB22C005B30F6605BB1EC0B0E0CF
:1000BE003B16A9F2B1E03B16B1F2B2E03B16B9F233
:1000CE00B3E03B16C1F2B4E03B16C9F2B5E03B1605
:1000DE00D1F2B6E03B16D9F2B7E03B16E1F2B8E04A
:1000EE003B16E9F2B9E03B16F1F210C005B3016020
:1000FE0005BB18C0B5B3B260B5BB14C005B3046080
:10010E0005BB10C005B3086005BB0CC0B1E02B16D3
:10011E0069F3B2E02B1671F3B3E02B1679F3B4E06A
:10012E002B1681F31BE003E60A95F1F71A95E1F71A
:02013E00089522
:0A00540005900D920197E1F7089561
:00000001FF
