:100000000C94D9010C94FD000C94E4000C940000B5
:100010000C9400000C9400000C9400000C94000060
:100020000C9400000C9400000C9416010C94000039
:100030000C9400000C9400000C9400000C94000040
:100040000C9400000C9400000C9400000C94000030
:040050000C9400000C
:1003B200BFE5BDBFB8E0BEBF0AB30F600ABB04B35E
:0E03C2000F6F04BBEADEF5DEDEDEFFCFFFCFFD
:10019C00BFB7B068BFBFBBE0B3BFB0E0B2BFBDE795
:0801AC00BCBFB2E0B9BF089529
:1001B400BFB7B068BFBF05B7036005BF0BB7006426
:0401C4000BBF0895D0
:10018800BFB7B068BFBF05B70C6005BF0BB7006845
:040198000BBF0895FC
:0A00540005900D920197E1F7089561
:10022C000F920F938F939F93AF93BF93EF93FF9383
:10023C00EF93FF93BF93BFB7BF932F923F92009161
:10024C006200109163000F5F1F4F009362001093C8
:10025C00630041C04AE050E00091600010916100E1
:10026C0063DF8C01302EB4E02B2EF3DE57C04AE056
:10027C0050E0009160001091610056DF8B014AE064
:10028C0050E052DF8C01302EB3E02B2EE2DE46C064
:10029C004AE050E0009166001091670045DF8C0148
:1002AC00302EB2E02B2ED5DE39C04AE050E0009162
:1002BC0066001091670038DF8B014AE050E034DFB4
:1002CC008C01302EB1E02B2EC4DEB0E0B093620076
:1002DC00B093630023C00091620010916300103052
:1002EC0009F4013009F4B6CF00916200109163005B
:1002FC00103009F4023009F4BACF00916200109169
:10030C006300103009F4033009F4C2CF009162008D
:10031C0010916300103009F4043039F2009164003C
:10032C0010916500133009F4073E19F50091600037
:10033C00109161000F5F1F4F0093600010936100DC
:10034C00B0E0B0936400B0936500103009F40C3346
:10035C0079F4B0E0B0936000B09361000091660056
:10036C00109167000F5F1F4F00936600109367009A
:10037C000AC000916400109165000F5F1F4F00933D
:10038C006400109365003F902F90BF91BFBFBF9149
:10039C00FF91EF91FF91EF91BF91AF919F918F9151
:0603AC000F910F9018955F
:10005E000BB3007F0BBB05B3007005BB28C005B307
:10006E000F6305BB42C005B3066005BB3EC005B3BA
:10007E000B6505BB3AC005B30F6405BB36C005B3AF
:10008E00066605BB32C005B30D6605BB2EC005B3B3
:10009E000D6705BB2AC005B3076005BB26C005B3B7
:1000AE000F6705BB22C005B3076605BB1EC0B0E0D7
:1000BE003B16A9F2B1E03B16B1F2B2E03B16B9F233
:1000CE00B3E03B16C1F2B4E03B16C9F2B5E03B1605
:1000DE00D1F2B6E03B16D9F2B7E03B16E1F2B8E04A
:1000EE003B16E9F2B9E03B16F1F210C00BB301601A
:1000FE000BBB18C0BBB3B260BBBB14C00BB3046068
:10010E000BBB10C00BB308600BBB0CC0B1E02B16C1
:10011E0069F3B2E02B1671F3B3E02B1679F3B4E06A
:06012E002B1681F3089579
:10013400C801BA0197FB092E07260AD077FD04D01F
:100144000CD006D000201AF4709561957F4F089565
:10015400F6F7909581959F4F0895AA1BBB1B51E11B
:1001640007C0AA1FBB1FA617B70710F0A61BB70B23
:10017400881F991F5A95A9F780959095BC01CD01C8
:04018400089508953D
:1001C8000F931F93EF93FF93BF93BFB7BF93009114
:1001D8006600109167000F5F1F4F00936600109331
:1001E8006700BF91BFBFBF91FF91EF911F910F9122
:0201F800189558
:1001FA000F931F93EF93FF93BF93BFB7BF930091E2
:10020A006000109161000F5F1F4F00936000109310
:10021A006100BF91BFBFBF91FF91EF911F910F91F5
:02022A00189525
:00000001FF
